:020000040000fa
:080000000002040000000000f2
:020000040000fa
:10000800920500009205000092050000920500008c
:10001800920500009205000092050000920500007c
:10002800920500009205000092050000920500006c
:10003800920500009205000092050000920500005c
:10004800920500009205000092050000920500004c
:10005800920500009402000092050000920500003d
:10006800920500009205000092050000920500002c
:10007800920500009205000092050000920500001c
:10008800920500009205000092050000920500000c
:1000980092050000920500009205000092050000fc
:1000a80092050000920500009205000092050000ec
:1000b80092050000920500009205000092050000dc
:1000c80092050000920500009205000092050000cc
:1000d80092050000920500009205000092050000bc
:1000e80092050000920500009205000092050000ac
:1000f800920500009205000092050000920500009c
:10010800920500009205000092050000920500008b
:10011800920500009205000092050000920500007b
:10012800920500009205000092050000920500006b
:10013800920500009205000092050000920500005b
:10014800920500009205000092050000920500004b
:10015800920500009205000092050000920500003b
:10016800920500009205000092050000920500002b
:10017800920500009205000092050000920500001b
:10018800920500009205000092050000920500000b
:1001980092050000920500009205000092050000fb
:1001a80092050000920500009205000092050000eb
:1001b80092050000920500009205000092050000db
:1001c80092050000920500009205000092050000cb
:1001d80092050000920500009205000092050000bb
:1001e80092050000920500009205000092050000ab
:0801f8009205000092050000d1
:020000040000fa
:10020800920500009205000092050000920500008a
:10021800920500009205000092050000920500007a
:10022800920500009205000092050000920500006a
:10023800920500009205000092050000920500005a
:10024800920500009205000092050000920500004a
:10025800920500009402000092050000920500003b
:10026800920500009205000092050000920500002a
:10027800920500009205000092050000920500001a
:10028800920500009205000092050000920500000a
:1002980092050000920500009205000092050000fa
:1002a80092050000920500009205000092050000ea
:1002b80092050000920500009205000092050000da
:1002c80092050000920500009205000092050000ca
:1002d80092050000920500009205000092050000ba
:1002e80092050000920500009205000092050000aa
:1002f800920500009205000092050000920500009a
:100308009205000092050000920500009205000089
:100318009205000092050000920500009205000079
:100328009205000092050000920500009205000069
:100338009205000092050000920500009205000059
:100348009205000092050000920500009205000049
:100358009205000092050000920500009205000039
:100368009205000092050000920500009205000029
:100378009205000092050000920500009205000019
:100388009205000092050000920500009205000009
:1003980092050000920500009205000092050000f9
:1003a80092050000920500009205000092050000e9
:1003b80092050000920500009205000092050000d9
:1003c80092050000920500009205000092050000c9
:1003d80092050000920500009205000092050000b9
:1003e80092050000920500009205000092050000a9
:0803f8009205000092050000cf
:020000040000fa
:100400004fb620000ebf20000e0188000000000043
:1004100000012000200288000c000700406420003a
:100420000100200011000700000020000000e00093
:10043000020032000000020000000000e40202009e
:10044000000000000040da000000fe004440a90067
:10045000000020000000e000030032000000200047
:10046000a00188004440a800000006009101880017
:10047000800078000000eb0015003700e2804000ab
:1004800032a0b4009101ba00e280400032a0b40072
:100490009102ba00e280400032a0b4000002eb00fa
:1004a000472bde00f507b200602ce10004003a00a3
:1004b0000059eb008301e900fdff3e000400370016
:1004c0006128e100010032000082eb000400070017
:1004d0001101ba000200e000e8ff3a000000060047
:1004e0003159ba008301e9000c0032002159ba00e9
:1004f0008301e900080032000400e00003003a0034
:10050000e280400032a0b400f5ff370011d9ba00f4
:100510008301e900faff3a008100e800e180400031
:1005200032a0b400000006003600f800809fbe0034
:10053000829fbe00849fbe00869fbe00881f7800f9
:100540000000fa00a4822000144278000484fb001a
:10055000a48220001442780004407800a301070020
:100560000002780008034400058020008502430053
:10057000840a7800a4822000144278000442e80033
:10058000044078002ae8b70085a0a900a4822000d2
:1005900014427800f04f520003003a0095a0a900e1
:1005a00014002000644188000080fa004f047800a5
:1005b0004f03be004f02be004f01be004f00be0001
:1005c0003600f900004006000a00fa004801070062
:1005d0000002eb00040f78000b003700f4822000cb
:1005e0001e02420014427800e04f52000a0032001e
:1005f000f48220001e024200144278000440780079
:10060000de0007001e0fe8001e027800ef0f520008
:10061000f2ff36000100370000000000e224a900cc
:10062000c822a900ca22a900e20007004a01070067
:10063000e204a800c802a800441980000400a10038
:100640000410a0000420a1000430a1004419880077
:10065000041980000450a0000460a0000470a000f1
:10066000041988002043a8002343a800141980001f
:100670000420a0000430a0000440a0000450a0000a
:100680001419880025198000f40f2e00848262005e
:10069000041021000482720024198800f4c1b30000
:1006a0000440780024e3b700440020008419880047
:1006b0000080eb002e01070021e3a80000000000ed
:1006c00064418000e00f5200fdff32000002eb00a9
:1006d000644188000002eb00440798000002eb0030
:1006e000240798000042eb002447980012003700ce
:1006f00021e3a800000000000c0107000042780080
:10070000e04f5200fcff3a0021e3a9000040eb005b
:100710003601070000027800144088001540800070
:100720002e02900004824200240798002e4290007e
:100730000442e800244798002e429000e94f5200fe
:10074000ebff360004010700ae029000a400200079
:10075000110009008402d8000002780044079800c4
:10076000ce02900074022000848f520003003c00ef
:100770000002eb003407980053003700ce029000cf
:1007800074022000848f520007003400ce029000d3
:1007900094032000848f520003003c0014002000ca
:1007a0003407980048003700ce02900094032000e0
:1007b000848f520007003400ce02900024042000f1
:1007c000848f520003003c0024002000340798006e
:1007d0003d003700ce02900024042000848f520098
:1007e00007003400ce029000f4042000848f5200f1
:1007f00003003c003400200034079800320037002a
:10080000ce029000f4042000848f520007003400d0
:10081000ce029000b4052000848f520003003c00fb
:10082000440020003407980027003700ce029000d3
:10083000b4052000848f520007003400ce029000df
:1008400054062000848f520003003c005400200016
:10085000340798001c003700ce0290005406200098
:10086000848f520007003400ce029000040720005d
:10087000848f520003003c0064002000340798007d
:1008800011003700ce02900004072000848f520030
:1008900007003400ce029000e4072000848f52004d
:1008a00003003c0074002000340798000600370065
:1008b000ce029000e4072000848f52000200340032
:1008c000840020003407980004428000e00f5200aa
:1008d00022003200000000001511800004202000da
:1008e00004826200e00f5200fbff3a00a0002000eb
:1008f000d700070000000000151180000420200030
:1009000004826200e00f5200fbff3a00d00020009a
:10091000cf00070000000000151180000420200017
:1009200004826200e00f5200fbff3a00a0032000a7
:10093000c7000700000000001511800004202000ff
:1009400004826200e00f5200fbff3a003e0290007a
:100950000403b00004007800bd00070014428000ca
:10096000be029000848f520002003400ca22a80008
:100970002dff3700ca22a9002bff37000200fa0022
:10098000004f7800000000001511800004102000c6
:1009900004826200e00f5200fbff32009e427800aa
:1009a0000582fb0004007800a90007000080fa001f
:1009b000000006000200fa001411800061026200cb
:1009c000e00f520048003200940007000002780057
:1009d000044f780000000000151180000420200062
:1009e00004826200e00f5200fbff3a009e42780052
:1009f0000582fb00040078009500070034c7b300af
:100a00009e42780084cf520002003a001400200079
:100a10000442880044c6b3009e42780084cf52004e
:100a200002003a000002eb000442880044c7b30011
:100a30009e42780084cf520018003a000000000067
:100a4000151180000420200004826200e00f520093
:100a5000fbff3a0000000000151180000420200078
:100a600004826200e00f5200fbff3a00a003200066
:100a7000770007000000000015118000042020000e
:100a800004826200e00f5200fbff3a001442800033
:100a90000403b000040078006d00070034c6b30002
:100aa0009e42780084cf52000f003a000000000000
:100ab000151180000420200004826200e00f520023
:100ac000fbff3a0000000000141180006102620088
:100ad000e00f5200fcff3a005000070000027800cf
:100ae0000403b100144288000080fa0000000600f0
:100af0000000fa00c8e2a900c842a800e244a90028
:100b000074062000441188000002eb0014118800d4
:100b100004002800041188002342a8000080fa0085
:100b2000000006000040da000000fe000000fa00ad
:100b3000041980006102620004f0a7000402ea00c8
:100b40000402e9004f22de000442780004407800ed
:100b50000080fa00000006000000fa0095a0a9003d
:100b600021e3a90085a0a9000080fa00000006008a
:100b70000200fa00000f780085a0a9001e0278008c
:100b80000442780067426200674262006742620086
:100b90000482fb00670262004422dd0056058000eb
:100ba000f5f82f0085026300048272005405880066
:100bb0009e027800688262004322de0004427800d0
:100bc000614262000482fb00610262004d22dd008e
:100bd000a6048000f5ff2d008502630004827200e8
:100be000a40488000080fa00000006000200fa0059
:100bf000004f78009e4278000582fb00040242000c
:100c0000840278000430200004824200140278003c
:100c1000040078000080fa00000006000000fa00de
:100c20000411800066026200e60f520002003a00e2
:100c3000341180000300370035118000f40f2000cc
:100c400004826200040078000080fa0000000600c0
:100c50000200fa00000f78000411800066026200b2
:100c6000e60f520003003a001e02780024118800ab
:100c700003003700f40f20001e02620024118800d8
:080c80000080fa0000000600ec
:020000040000fa
:100c8800000800002c000000000000002c080000f4
:100c9800180000000200000000000000554152004a
:100ca800542045006e6162006c6564002e2e2e0093
:0c0cb8000000000000040000000000002c
:020000040000fa
:0200000401f009
:04000000ffff0000fe
:020000040000fa
:0200000401f009
:04000800ffff0000f6
:020000040000fa
:0200000401f009
:04000c0078ff000079
:020000040000fa
:0200000401f009
:040010003fff0000ae
:020000040000fa
:0200000401f009
:04001400dfff00000a
:020000040000fa
:0200000401f009
:04001800ffff0000e6
:020000040000fa
:0200000401f009
:04001c00fdff0000e4
:00000001FF
